:020000040800F2
:1000000000500020551B000829190008311900086C
:1000100039190008411900084919000800000000BA
:10002000000000000000000000000000511900085E
:100030005D19000800000000691900087519000822
:100040009D1B00089D1B00089D1B00089D1B0008B0
:100050009D1B00089D1B00089D1B000881190008BE
:100060008F1900089D1B00089D1B00089D1B0008A0
:100070009D1B00089D1B00089D1B00089D1B000880
:100080009D1B00089D1B00089D1B00089D1B000870
:100090009D1B00089D1B00089D1B00089D1B000860
:1000A0009D1B00089D1B00089D1B00089D1B000850
:1000B0009D1900089D1B00089D1B00089D1B000842
:1000C0009D1B00089D1B00089D1B00089D1B000830
:1000D0009D1B0008B11900089D1B00089D1B00080E
:1000E0009D1B00089D1B00089D1B000800000000D0
:1000F0000000000000000000000000000000000000
:0C01000000000000000000005FF808F1A3
:1001100010B5054C237833B9044B13B10448AFF341
:1001200000800123237010BDDC01002000000000CE
:100130006493000808B5034B1BB103490348AFF3B0
:10014000008008BD00000000E0010020649300086A
:10015000034613F8012B002AFBD1181A0138704707
:100160004FF0FF0C1CEAD0521EBF1CEAD15392EA9A
:100170000C0F93EA0C0F6FD01A4480EA010C400276
:1001800018BF5FEA41211ED04FF0006343EA5010D0
:1001900043EA5111A0FB01310CF00040B1F5000F12
:1001A0003EBF490041EAD3715B0040EA010062F1C1
:1001B0007F02FD2A1DD8B3F1004F40EBC25008BFAB
:1001C00020F00100704790F0000F0CF0004C08BFC9
:1001D00049024CEA502040EA51207F3AC2BFD2F196
:1001E000FF0340EAC250704740F400004FF00003A4
:1001F000013A5DDC12F1190FDCBF00F000407047DE
:10020000C2F10002410021FA02F1C2F1200200FA1B
:1002100002FC5FEA310040F1000053EA4C0308BFE2
:1002200020EADC70704792F0000F00F0004C02BF33
:10023000400010F4000F013AF9D040EA0C0093F0AE
:10024000000F01F0004C02BF490011F4000F013B08
:10025000F9D041EA0C018FE70CEAD15392EA0C0F76
:1002600018BF93EA0C0F0AD030F0004C18BF31F0E1
:10027000004CD8D180EA010000F00040704790F0B7
:10028000000F17BF90F0004F084691F0000F91F05B
:10029000004F14D092EA0C0F01D142020FD193EA21
:1002A0000C0F03D14B0218BF084608D180EA0100A9
:1002B00000F0004040F0FE4040F40000704740F085
:1002C000FE4040F44000704781F0004102E000BF72
:1002D00083F0004330B54FEA41044FEA430594EA06
:1002E000050F08BF90EA020F1FBF54EA000C55EA41
:1002F000020C7FEA645C7FEA655C00F0E2804FEA12
:100300005454D4EB5555B8BF6D420CDD2C4480EAF3
:10031000020281EA030382EA000083EA010180EA23
:10032000020281EA0303362D88BF30BD11F0004F71
:100330004FEA01314FF4801C4CEA113102D04042A7
:1003400061EB410113F0004F4FEA03334CEA1333E2
:1003500002D0524263EB430394EA050F00F0A780FA
:10036000A4F10104D5F1200E0DDB02FA0EFC22FAF5
:1003700005F2801841F1000103FA0EF2801843FAE9
:1003800005F359410EE0A5F120050EF1200E012ADA
:1003900003FA0EFC28BF4CF0020C43FA05F3C01818
:1003A00051EBE37101F0004507D54FF0000EDCF191
:1003B000000C7EEB00006EEB0101B1F5801F1BD33A
:1003C000B1F5001F0CD349085FEA30004FEA3C0C3E
:1003D00004F101044FEA445212F5800F80F09A8034
:1003E000BCF1004F08BF5FEA500C50F1000041EB38
:1003F000045141EA050130BD5FEA4C0C404141EB3C
:100400000101013C28BFB1F5801FE9D291F0000F36
:1004100004BF01460020B1FA81F308BF2033A3F1E5
:100420000B03B3F120020CDA0C3208DD02F1140CDC
:10043000C2F10C0201FA0CF021FA02F10CE002F117
:100440001402D8BFC2F1200C01FA02F120FA0CFC10
:10045000DCBF41EA0C019040E41AA2BF01EB045159
:10046000294330BD6FEA04041F3C1CDA0C340EDC57
:1004700004F11404C4F1200220FA04F001FA02F39A
:1004800040EA030021FA04F345EA030130BDC4F158
:100490000C04C4F1200220FA02F001FA04F340EA4D
:1004A0000300294630BD21FA04F0294630BD94F0FE
:1004B000000F83F4801306BF81F480110134013DE5
:1004C0004EE77FEA645C18BF7FEA655C29D094EA56
:1004D000050F08BF90EA020F05D054EA000C04BFD4
:1004E0001946104630BD91EA030F1EBF00210020BF
:1004F00030BD5FEA545C05D14000494128BF41F05E
:10050000004130BD14F580043CBF01F5801130BDC1
:1005100001F0004545F0FE4141F470014FF000004C
:1005200030BD7FEA645C1ABF194610467FEA655CFD
:100530001CBF0B46024650EA013406BF52EA03359F
:1005400091EA030F41F4002130BD00BF90F0000F8D
:1005500004BF0021704730B54FF4806404F13204C9
:100560004FF000054FF0000150E700BF90F0000F82
:1005700004BF0021704730B54FF4806404F13204A9
:1005800010F0004548BF40424FF000013EE700BF79
:1005900042004FEAE2014FEA31014FEA02701FBF09
:1005A00012F07F4393F07F4F81F06051704732F03B
:1005B0007F4208BF704793F07F4F04BF41F4002192
:1005C000704730B54FF4607401F0004521F00041F0
:1005D0001CE700BF50EA010208BF704730B54FF07A
:1005E00000050AE050EA010208BF704730B511F07B
:1005F000004502D5404261EB41014FF4806404F1B3
:1006000032045FEA915C3FF4D8AE4FF003025FEA38
:10061000DC0C18BF03325FEADC0C18BF033202EBBC
:10062000DC02C2F1200300FA03FC20FA02F001FA16
:1006300003FE40EA0E0021FA02F11444BDE600BFB9
:1006400070B54FF0FF0C4CF4E06C1CEA11541DBF68
:100650001CEA135594EA0C0F95EA0C0F00F0DEF833
:100660002C4481EA030621EA4C5123EA4C5350EA18
:10067000013518BF52EA033541F4801143F4801369
:1006800038D0A0FB02CE4FF00005E1FB02E506F0FA
:100690000042E0FB03E54FF00006E1FB03569CF04F
:1006A000000F18BF4EF0010EA4F1FF04B6F5007F55
:1006B00064F5407404D25FEA4E0E6D4146EB0606C7
:1006C00042EAC62141EA55514FEAC52040EA5E5050
:1006D0004FEACE2EB4F1FD0C88BFBCF5E06F1ED8FA
:1006E000BEF1004F08BF5FEA500E50F1000041EB31
:1006F000045170BD06F0004646EA010140EA0200DE
:1007000081EA0301B4EB5C04C2BFD4EB0C0541EAFF
:10071000045170BD41F480114FF0000E013C00F314
:10072000AB8014F1360FDEBF002001F0004170BD38
:10073000C4F10004203C35DA0C341BDC04F1140451
:10074000C4F1200500FA05F320FA04F001FA05F2DD
:1007500040EA020001F0004221F0004110EBD370AA
:1007600021FA04F642EB06015EEA430E08BF20EAD6
:10077000D37070BDC4F10C04C4F1200500FA04F379
:1007800020FA05F001FA04F240EA020001F000410B
:1007900010EBD37041F100015EEA430E08BF20EA7E
:1007A000D37070BDC4F1200500FA05F24EEA020EC6
:1007B00020FA04F301FA05F243EA020321FA04F0F5
:1007C00001F0004121FA04F220EA020000EBD370AC
:1007D0005EEA430E08BF20EAD37070BD94F0000FAC
:1007E0000FD101F00046400041EB010111F4801FE0
:1007F00008BF013CF7D041EA060195F0000F18BF91
:10080000704703F00046520043EB030313F4801FCC
:1008100008BF013DF7D043EA0603704794EA0C0F86
:100820000CEA135518BF95EA0C0F0CD050EA41069C
:1008300018BF52EA4306D1D181EA030101F0004119
:100840004FF0000070BD50EA410606BF1046194641
:1008500052EA430619D094EA0C0F02D150EA01364D
:1008600013D195EA0C0F05D152EA03361CBF10468E
:1008700019460AD181EA030101F0004141F0FE412D
:1008800041F470014FF0000070BD41F0FE4141F4B1
:10089000780170BD70B54FF0FF0C4CF4E06C1CEAB1
:1008A00011541DBF1CEA135594EA0C0F95EA0C0F66
:1008B00000F0A7F8A4EB050481EA030E52EA033521
:1008C0004FEA013100F088804FEA03334FF0805542
:1008D00045EA131343EA12634FEA022245EA11156F
:1008E00045EA10654FEA00260EF000419D4208BF20
:1008F000964244F1FD0404F5407402D25B084FEACD
:100900003202B61A65EB03055B084FEA32024FF478
:1009100080104FF4002CB6EB020E75EB030E22BFD5
:10092000B61A754640EA0C005B084FEA3202B6EB95
:10093000020E75EB030E22BFB61A754640EA5C0044
:100940005B084FEA3202B6EB020E75EB030E22BFD4
:10095000B61A754640EA9C005B084FEA3202B6EBD5
:10096000020E75EB030E22BFB61A754640EADC0094
:1009700055EA060E18D04FEA051545EA16754FEAF6
:1009800006164FEAC30343EA52734FEAC2025FEA14
:100990001C1CC0D111F4801F0BD141EA00014FF0A3
:1009A00000004FF0004CB6E711F4801F04BF014374
:1009B0000020B4F1FD0C88BFBCF5E06F3FF6AFAE90
:1009C000B5EB030C04BFB6EB020C5FEA500C50F120
:1009D000000041EB045170BD0EF0004E4EEA1131A3
:1009E00014EB5C04C2BFD4EB0C0541EA045170BDAA
:1009F00041F480114FF0000E013C90E645EA060EEE
:100A00008DE60CEA135594EA0C0F08BF95EA0C0F1B
:100A10003FF43BAF94EA0C0F0AD150EA01347FF463
:100A200034AF95EA0C0F7FF425AF104619462CE73A
:100A300095EA0C0F06D152EA03353FF4FDAE10469D
:100A4000194622E750EA410618BF52EA43067FF4EE
:100A5000C5AE50EA41047FF40DAF52EA43057FF47E
:100A6000EBAE12E74FF0FF3C06E000BF4FF0010C89
:100A700002E000BF4FF0010C4DF804CD4FEA410CED
:100A80007FEA6C5C4FEA430C18BF7FEA6C5C1BD0BA
:100A900001B050EA410C0CBF52EA430C91EA030F3B
:100AA00002BF90EA020F0020704710F1000F91EA98
:100AB000030F58BF994208BF90422CBFD8176FEA66
:100AC000E37040F0010070474FEA410C7FEA6C5C34
:100AD00002D150EA013C07D14FEA430C7FEA6C5C3B
:100AE000D6D152EA033CD3D05DF8040B704700BF67
:100AF0008446104662468C461946634600E000BFB5
:100B000001B5FFF7B7FF002848BF10F1000F01BD86
:100B10004DF808EDFFF7F4FF0CBF012000205DF851
:100B200008FB00BF4DF808EDFFF7EAFF34BF0120D6
:100B300000205DF808FB00BF4DF808EDFFF7E0FF6F
:100B400094BF012000205DF808FB00BF4DF808EDC0
:100B5000FFF7CEFF94BF012000205DF808FB00BF27
:100B60004DF808EDFFF7C4FF34BF012000205DF809
:100B700008FB00BF4FEA410C7FEA6C5C02D150EAEF
:100B8000013C0AD14FEA430C7FEA6C5C02D152EA85
:100B9000033C02D14FF0000070474FF00100704756
:100BA0004FEA410212F5001215D211D56FF4787395
:100BB000B3EB625212D94FEAC12343F0004343EA38
:100BC000505311F0004F23FA02F018BF4042704713
:100BD0004FF00000704750EA013005D111F000409D
:100BE00008BF6FF0004070474FF00000704700BF33
:100BF0004A0011D212F5001211D20DD56FF478739C
:100C0000B3EB62520ED44FEAC12343F0004343EAF0
:100C1000505323FA02F070474FF00000704750EA3B
:100C2000013002D14FF0FF3070474FF000007047A5
:100C30004FEA4102B2F1E04324BFB3F5001CDCF1FE
:100C4000FE5C0DD901F0004C4FEAC0024CEA507036
:100C5000B2F1004F40EB830008BF20F00100704765
:100C600011F0804F21D113F13872BCBF01F0004068
:100C7000704741F480114FEA5252C2F11802C2F19A
:100C8000200C10FA0CF320FA02F018BF40F001001B
:100C90004FEAC1234FEAD32303FA0CFC40EA0C00CD
:100CA00023FA02F34FEA4303CCE77FEA625307D10A
:100CB00050EA01331EBF4FF0FE4040F44000704741
:100CC00001F0004040F0FE4040F40000704700BFDB
:100CD0004FF0FF3C06E000BF4FF0010C02E000BF08
:100CE0004FF0010C4DF804CD4FEA40024FEA4103AA
:100CF0007FEA226C18BF7FEA236C11D001B052EA60
:100D0000530C18BF90EA010F58BFB2EB030088BF25
:100D1000C81738BF6FEAE17018BF40F00100704794
:100D20007FEA226C02D15FEA402C05D17FEA236C76
:100D3000E4D15FEA412CE1D05DF8040B704700BFBD
:100D4000844608466146FFE70FB5FFF7C9FF002854
:100D500048BF10F1000F0FBD4DF808EDFFF7F4FF8D
:100D60000CBF012000205DF808FB00BF4DF808ED26
:100D7000FFF7EAFF34BF012000205DF808FB00BF49
:100D80004DF808EDFFF7E0FF94BF012000205DF86B
:100D900008FB00BF4DF808EDFFF7D2FF94BF01201C
:100DA00000205DF808FB00BF4DF808EDFFF7C8FF15
:100DB00034BF012000205DF808FB00BF38B50022D9
:100DC000002304460D46FFF7ADFE28B9204629460C
:100DD000BDE8384000F00AB8204605F1004100F0B7
:100DE00005F8404261EB410138BD00BFD0B500229B
:100DF0000B4B06460F46FFF723FCFFF7F9FE0446B0
:100E0000FFF7A4FB0022074BFFF71AFC02460B4634
:100E100030463946FFF75CFAFFF7EAFE2146D0BDBF
:100E20000000F03D0000F04180B582B000AF034605
:100E30000A46FB711346BB71BB791A462021224832
:100E400001F0D0FE012210211F4801F0CBFE01204D
:100E500000F008FFFB7903F00103DBB21A4608211A
:100E6000194801F0BFFEFB795B08DBB203F0010318
:100E7000DBB21A460421144801F0B4FEFB799B084A
:100E8000DBB203F00103DBB21A4602210E4801F087
:100E9000A9FEFB79DB08DBB203F00103DBB21A46E3
:100EA0000121094801F09EFE012000F0DBFE002236
:100EB0001021054801F096FE012000F0D3FE00BF8E
:100EC0000837BD4680BD00BF000C014080B582B030
:100ED00000AF03460A46FB711346BB71FB791B0941
:100EE000DBB2BA7911461846FFF79EFFFB7903F093
:100EF0000F03DBB2BA7911461846FFF795FF00BF22
:100F00000837BD4680BD80B584B000AF7860786892
:100F1000FFF71EF90346BB600023FB600AE0FB6895
:100F20007A6813441B7801211846FFF7CFFFFB684E
:100F30000133FB60FA68BB689A42F0DB00BF00BF78
:100F40001037BD4680BD80B500AF00210320FFF7FC
:100F50006BFF052000F086FE00210320FFF764FFF1
:100F6000012000F07FFE00210320FFF75DFF01203C
:100F700000F078FE00210220FFF756FF012000F06C
:100F800071FE00212820FFF7A1FF012000F06AFE7A
:100F900000210C20FFF79AFF012000F063FE00BF44
:100FA00080BD000080B582B000AF00237B600B489D
:100FB00000F054FF4FF0FF31084801F029F80346D4
:100FC000002B03D1054801F029F97860034800F0AF
:100FD000F3FF7B6818460837BD4680BDF801002046
:100FE00080B483B000AF0346FB80FB88022B03D1A3
:100FF000074B01221A6005E0FB88042B02D1044B49
:1010000000221A6000BF0C37BD4680BC704700BF8D
:101010000000002080B582B000AF7860064B1B68EE
:10102000012B04D14FF40051044801F0F3FD00BF3F
:101030000837BD4680BD00BF00000020000C014005
:1010400080B596B000AF00F0ABFD00F01DFA00F0E7
:101050001FFB00F069FA00F0F1FA00F0A3FAFFF7C5
:1010600072FF00237B654FF000033B654FF00003E8
:10107000FB64AF4802F0CCFBFFF765FF07F11701F7
:101080004FF47A730122AB4803F03FF80346002B7C
:101090003FD1FB7D382B03D1A74B01221A6038E0EA
:1010A000FB7D392B03D1A44B00221A6031E0FB7D7C
:1010B000302B0DD19E4B1B6840F2F312DA629C4B31
:1010C00040F2F312DA609A4B1B6800225A6220E069
:1010D000FB7D312B0DD1964B1B6840F2E732DA6273
:1010E000934B40F2E732DA60914B1B6800225A6260
:1010F0000FE0FB7D322B0CD18D4B1B6840F2CF7281
:10110000DA628B4B40F2CF72DA60894B1B680022A7
:101110005A62894B1B68012B04D0884B1B68042B37
:1011200040F08881FFF73EFF7865786DFFF70EFA93
:101130007BA3D3E90023FFF783FA02460B46104650
:10114000194679A3D3E90023FFF7A4FB02460B4617
:1011500010461946FFF76CFD03463B657849386D2C
:10116000FEF7FEFF0346FB64F86CFFF711FA024638
:101170000B4607F11800734904F0C6FC07F1180389
:101180001846FEF7E5FF03469AB207F118014FF43F
:101190007A73684802F02EFFF86CFFF7F9F90246FF
:1011A0000B46381D684904F0AFFC00218020FFF792
:1011B0008DFE3B1D1846FFF7A6FE4FF47A7000F037
:1011C00051FD4FF08341F86CFFF7EEFD0346002B15
:1011D00031D04FF08441F86CFFF7C8FD0346002B77
:1011E00029D001224FF40071584801F0FBFC002285
:1011F0004FF48061554801F0F5FC00224FF4006186
:10120000524801F0EFFC00224FF480514F4801F0AA
:10121000E9FC00224FF400414C4801F0E3FC0021BE
:101220000120FFF753FE00218020FFF74FFE4848C2
:10123000FFF769FEF9E04FF08441F86CFFF7B4FD69
:101240000346002B30D04349F86CFFF78FFD03466F
:10125000002B29D001224FF400713C4801F0C2FC60
:1012600001224FF48061394801F0BCFC00224FF4A8
:101270000061364801F0B6FC00224FF4805133483B
:1012800001F0B0FC00224FF40041304801F0AAFC0C
:1012900000210120FFF71AFE00218020FFF716FE33
:1012A0002D48FFF730FEC0E02A49F86CFFF77CFDBF
:1012B0000346002B54D04FF08541F86CFFF756FDE4
:1012C0000346002B4CD001224FF400711F4801F05F
:1012D00089FC01224FF480611C4801F083FC01224B
:1012E0004FF40061194801F07DFC00224FF4805159
:1012F000164801F077FC00224FF40041134801F03A
:1013000071FC00210120FFF7E1FD00218020FFF7A3
:10131000DDFD1248FFF7F7FD87E000BFAFF3008067
:101320006666666666660A400000000000FEAF4022
:10133000280200207002002000000020040000208D
:101340000000C8428093000888930008000C014008
:101350009893000800004042A8930008B893000842
:101360004FF08541F86CFFF71FFD0346002B30D08E
:101370003E49F86CFFF7FAFC0346002B29D0012206
:101380004FF400713A4801F02DFC01224FF48061C6
:10139000374801F027FC01224FF40061344801F086
:1013A00021FC01224FF48051314801F01BFC002246
:1013B0004FF400412E4801F015FC00210120FFF7F9
:1013C00085FD00218020FFF781FD2A48FFF79BFD66
:1013D0002BE02649F86CFFF7E7FC0346002B24D0EE
:1013E0004FF40071224801F015FC4FF48061204851
:1013F00001F010FC4FF400611D4801F00BFC4FF4AC
:1014000080511B4801F006FC01224FF400411848AE
:1014100001F0E8FB00210120FFF758FD00218020AA
:10142000FFF754FD1448FFF76EFD4FF4FA7000F01B
:1014300019FC16E0114B1B68002B03D0104B1B68E6
:10144000052B0ED100210120FFF740FD0021802057
:10145000FFF73CFD0B48FFF756FD4FF4FA7000F024
:1014600001FC4FF4FA7000F0FDFB07E60000A0421B
:10147000000C0140C8930008DC9300080000002025
:1014800004000020EC93000880B594B000AF07F191
:10149000280328220021184604F099FB07F11403C1
:1014A00000221A605A609A60DA601A613B1D0022BD
:1014B0001A605A609A60DA600223BB620123BB6340
:1014C0001023FB6300237B6407F12803184601F017
:1014D000D3FB0346002B01D000F03AF90F237B61C8
:1014E0000023BB610023FB6100233B6200237B627E
:1014F00007F114030021184601F040FE0346002BBB
:1015000001D000F025F902237B600023FB603B1D26
:10151000184601F0C1FF0346002B01D000F018F976
:1015200000BF5037BD4680BD80B584B000AF3B1DC5
:1015300000221A605A609A60184B194A1A60174BB9
:1015400000229A60154B01221A73144B00221A755F
:10155000124B4FF46022DA61104B00225A600F4B9D
:1015600001221A610D4800F0A1FB0346002B01D0B7
:1015700000F0EEF800237B600123BB600023FB60DA
:101580003B1D1946054800F055FE0346002B01D0CF
:1015900000F0DEF800BF1037BD4680BDF801002026
:1015A0000024014080B586B000AF07F10803002297
:1015B0001A605A609A60DA603B4600221A605A60EC
:1015C0001D4B4FF080421A601B4B4FF4FA525A6089
:1015D000194B00229A60184B0022DA60164B002249
:1015E0001A61154B80229A61134802F0C1F8034634
:1015F000002B01D000F0ACF84FF48053BB6007F132
:10160000080319460C4802F045FA0346002B01D0A6
:1016100000F09EF800233B6000237B603B461946A8
:10162000054802F027FC0346002B01D000F090F89B
:1016300000BF1837BD4680BD2802002080B500AF2E
:10164000114B124A1A60104B4FF416525A600E4B4F
:1016500000229A600C4B0022DA600B4B00221A61C8
:10166000094B0C225A61084B00229A61064B00225A
:10167000DA61054802F06EFC0346002B01D000F051
:1016800067F800BF80BD00BF700200200038014035
:1016900080B586B000AF07F1080300221A605A60D7
:1016A0009A60DA60264B9B69254A43F004039361F4
:1016B000234B9B6903F004037B607B68204B9B6991
:1016C0001F4A43F0080393611D4B9B6903F0080315
:1016D0003B603B6800224BF63F611A4801F082FAFA
:1016E0000623BB60184BFB6000233B6107F1080336
:1016F0001946164801F0F2F84BF63F63BB60012330
:10170000FB6000233B6102237B6107F1080319465C
:101710000C4801F0E3F800220021072000F0F5FF5B
:10172000072001F00EF800220021082000F0EDFF54
:10173000082001F006F800BF1837BD4680BD00BF85
:1017400000100240000C0140000011100008014090
:1017500080B400AF72B600BF00BFFDE780B485B0B3
:1017600000AF154B9B69144A43F001039361124B80
:101770009B6903F00103BB60BB680F4BDB690E4A3A
:1017800043F08053D3610C4BDB6903F080537B60E3
:101790007B680A4B5B68FB60FB6823F0E063FB60DF
:1017A000FB6843F08063FB60044AFB68536000BF42
:1017B0001437BD4680BC7047001002400000014055
:1017C00080B588B000AF786007F1100300221A607E
:1017D0005A609A60DA607B681B68144A934221D190
:1017E000134B9B69124A43F400739361104B9B693E
:1017F00003F40073FB60FB680D4B9B690C4A43F0DC
:10180000040393610A4B9B6903F00403BB60BB684C
:1018100001233B6103237B6107F11003194605484F
:1018200001F05CF800BF2037BD4680BD00240140B8
:10183000001002400008014080B584B000AF78601D
:101840007B681B68B3F1804F13D10C4BDB690B4AEB
:1018500043F00103D361094BDB6903F00103FB6033
:10186000FB68002200211C2000F04FFF1C2000F02C
:1018700068FF00BF1037BD4680BD00BF00100240AA
:1018800080B588B000AF786007F1100300221A60BD
:101890005A609A60DA607B681B68204A934239D1AB
:1018A0001F4B9B691E4A43F4804393611C4B9B6909
:1018B00003F48043FB60FB68194B9B69184A43F0B3
:1018C00004039361164B9B6903F00403BB60BB6880
:1018D0004FF400733B6102237B610323FB6107F13B
:1018E000100319460F4800F0F9FF4FF480633B6185
:1018F00000237B610023BB6107F1100319460948EF
:1019000000F0ECFF00220021252000F0FEFE252043
:1019100000F017FF00BF2037BD4680BD00380140F2
:10192000001002400008014080B400AF00BFFDE796
:1019300080B400AF00BFFDE780B400AF00BFFDE79B
:1019400080B400AF00BFFDE780B400AF00BFFDE78B
:1019500080B400AF00BFBD4680BC704780B400AF0C
:1019600000BFBD4680BC704780B400AF00BFBD461D
:1019700080BC704780B500AF00F058F900BF80BD53
:1019800080B500AF022001F05FF900BF80BD80B5D7
:1019900000AF042001F058F900BF80BD80B500AF52
:1019A000024801F087FF00BF80BD00BF2802002071
:1019B00080B500AF024802F03FFC00BF80BD00BF11
:1019C0007002002080B400AF01231846BD4680BCE1
:1019D000704780B582B000AF7860396004F04AF992
:1019E000034616221A604FF0FF3318460837BD46EB
:1019F00080BD80B582B000AF78604FF0FF3178686D
:101A0000FFF7E7FF00BFFDE780B586B000AFF860E5
:101A1000B9607A6000237B610AE0AFF30080014681
:101A2000BB685A1CBA60CAB21A707B6901337B6109
:101A30007A697B689A42F0DB7B6818461837BD46A6
:101A400080BD80B586B000AFF860B9607A600023D1
:101A50007B6109E0BB685A1CBA601B781846AFF37B
:101A600000807B6901337B617A697B689A42F1DB94
:101A70007B6818461837BD4680BD80B483B000AF80
:101A800078604FF0FF3318460C37BD4680BC704776
:101A900080B483B000AF786039603B684FF4005287
:101AA0005A60002318460C37BD4680BC704780B48E
:101AB00083B000AF7860012318460C37BD4680BC68
:101AC000704780B485B000AFF860B9607A600023D9
:101AD00018461437BD4680BC7047000080B586B0FC
:101AE00000AF7860144A154BD31A7B617B693B6168
:101AF000134B1B68002B02D1114B124A1A60104B7A
:101B00001A687B6813443A699A4207D204F0B2F823
:101B100003460C221A604FF0FF3309E0084B1B68A4
:101B2000FB60074B1A687B681344054A1360FB6827
:101B300018461837BD4680BD005000200004000044
:101B4000B80200201004002080B400AF00BFBD46E2
:101B500080BC7047FFF7F8FF0B480C490C4A002384
:101B600002E0D458C4500433C4188C42F9D3094A53
:101B7000094C002301E013600432A242FBD304F0BD
:101B80007FF8FFF75DFA704700000020DC010020BD
:101B900078980008DC0100200C040020FEE700001B
:101BA00080B500AF084B1B68074A43F01003136071
:101BB000032000F09FFD0F2000F008F8FFF7CEFD96
:101BC0000023184680BD00BF0020024080B582B0CF
:101BD00000AF7860124B1A68124B1B7819464FF40D
:101BE0007A73B3FBF1F3B2FBF3F3184600F0B7FDE1
:101BF0000346002B01D001230EE07B680F2B0AD88F
:101C0000002279684FF0FF3000F07FFD064A7B68C4
:101C10001360002300E0012318460837BD4680BD4D
:101C200008000020100000200C00002080B400AF4D
:101C3000054B1B781A46054B1B681344034A136077
:101C400000BFBD4680BC704710000020BC020020D1
:101C500080B400AF024B1B681846BD4680BC70477D
:101C6000BC02002080B584B000AF7860FFF7F0FFC1
:101C7000B8607B68FB60FB68B3F1FF3F05D00A4B9F
:101C80001B781A46FB681344FB6000BFFFF7E0FFB8
:101C90000246BB68D31AFA689A42F7D800BF00BF61
:101CA0001037BD4680BD00BF1000002080B586B053
:101CB00000AF78600023FB7500233B610023BB600D
:101CC0000023FB607B68002B01D10123BEE07B6811
:101CD0009B68002B7B689B6A002B09D17B680022E4
:101CE000DA627B68002283F824207868FFF768FDB9
:101CF000786800F0F1FB0346FB757B689B6A03F094
:101D00001003002B40F09980FB7D002B40F0958064
:101D10007B689B6A23F4885323F0020343F002029A
:101D20007B689A627B685A687B68DB691A437B68C8
:101D30001B7B5B001343BA681343BB607B689B68E3
:101D4000B3F5807F03D07B689B68012B02D14FF4F1
:101D5000807300E000233A6913433B617B681B7D7D
:101D6000012B19D17B681B7B002B09D17B689B69F8
:101D7000013B5A033B69134343F400633B610BE0AF
:101D80007B689B6A43F020027B689A627B68DB6A0F
:101D900043F001027B68DA627B681B685B6823F4AE
:101DA00069417B681B683A690A435A607B681B6813
:101DB0009A68284B13407A681268B9680B4393609D
:101DC0007B689B68B3F5807F03D07B689B68012BA1
:101DD00004D17B681B69013B1B05FB607B681B68AA
:101DE000DB6A23F470017B681B68FA680A43DA62D5
:101DF0007B681B689A68184B1340BA689A420BD1EB
:101E00007B680022DA627B689B6A23F0030343F05D
:101E100001027B689A6218E07B689B6A23F01203D8
:101E200043F010027B689A627B68DB6A43F0010230
:101E30007B68DA620123FB7507E07B689B6A43F0ED
:101E400010027B689A620123FB75FB7D18461837E8
:101E5000BD4680BDFDF7E1FFFE0E1FFF80B584B0DB
:101E600000AF78600023FB737B6893F82430012B6C
:101E700001D1022398E07B68012283F8242078684E
:101E800000F0D0FA0346FB73FB7B002B40F0878009
:101E90007B689B6A23F4407323F0010343F4807250
:101EA0007B689A627B681B68414A934205D1414B2B
:101EB0005B6803F47023002B15D17B689B6A23F4C5
:101EC00080127B689A627B681B685B6803F480639E
:101ED000002B26D07B689B6A23F4405343F4805246
:101EE0007B689A621DE07B689B6A43F480127B6882
:101EF0009A627B681B682F4A934204D07B681B68F8
:101F00002B4A93420DD12B4B5B6803F48063002B6B
:101F100007D07B689B6A23F4405343F480527B686C
:101F20009A627B689B6A03F48053002B06D07B681F
:101F3000DB6A23F006027B68DA6202E07B6800223B
:101F4000DA627B68002283F824207B681B686FF0CC
:101F500002021A607B681B689B6803F46023B3F578
:101F6000602F13D17B681B68114A934205D1114B36
:101F70005B6803F47023002B08D17B681B689A68A8
:101F80007B681B6842F4A0029A600CE07B681B68C7
:101F90009A687B681B6842F480129A6003E07B6851
:101FA000002283F82420FB7B18461037BD4680BDF5
:101FB000002801400024014080B584B000AF786063
:101FC0000023FB737B6893F82430012B01D102239B
:101FD0001AE07B68012283F82420786800F07CFAFC
:101FE0000346FB73FB7B002B09D17B689B6A23F4C0
:101FF000885323F0010343F001027B689A627B68F7
:10200000002283F82420FB7B18461037BD4680BD94
:1020100090B587B000AF7860396000237B61002302
:10202000FB6000233B61FFF713FE78617B681B6850
:102030009B6803F48073002B0BD07B689B6A43F092
:1020400020027B689A627B68002283F824200123A7
:10205000D3E07B681B685B6803F48073002B31D18D
:102060007B681B68DB6A03F47003002B2AD121E034
:102070003B68B3F1FF3F1DD03B68002B07D0FFF753
:10208000E7FD02467B69D31A3A689A4212D27B680E
:102090001B681B6803F00203002B0BD17B689B6A53
:1020A00043F004027B689A627B68002283F8242054
:1020B0000323A2E07B681B681B6803F00203002B6C
:1020C000D6D070E04F4B1C68022001F09BFA03460B
:1020D000B4FBF3F27B681B6819694B4B0B40002B78
:1020E00018D17B681B68D968484B0B40002B11D175
:1020F0007B681B681969464B0B40002B08D17B6835
:102100001B68D968434B0B40002B01D1142320E0FE
:1021100029231EE07B681B6819693D4B0B40002B8F
:1021200006D17B681B68D9683A4B0B40002B0DD059
:102130007B681B681969384B0B40002B08D17B6802
:102140001B68D968344B0B40002B01D1542300E0AD
:10215000FC2302FB03F33B6121E03B68B3F1FF3F4B
:102160001AD03B68002B07D0FFF772FD02467B694F
:10217000D31A3A689A420FD2FB683A699A420BD94D
:102180007B689B6A43F004027B689A627B6800224A
:1021900083F82420032330E0FB680133FB60FB68F5
:1021A0003A699A42D9D87B681B686FF012021A60AC
:1021B0007B689B6A43F400727B689A627B681B6849
:1021C0009B6803F46023B3F5602F15D17B681B7BFC
:1021D000002B11D17B689B6A23F480727B689A6222
:1021E0007B689B6A03F48053002B05D17B689B6A54
:1021F00043F001027B689A62002318461C37BD46F3
:1022000090BD00BF08000020244992242449920078
:1022100092244912922449004992240080B483B048
:1022200000AF78607B681B68DB6C18460C37BD46D6
:1022300080BC704780B485B000AF786039600023FF
:10224000FB730023BB607B6893F82430012B01D122
:102250000223DCE07B68012283F824203B685B6872
:10226000062B1CD87B681B68596B3B685A68134661
:102270009B001344053B1F2202FA03F3DB43194082
:102280003B6818683B685A6813469B001344053B3B
:1022900000FA03F27B681B680A435A633CE03B6820
:1022A0005B680C2B1CD87B681B68196B3B685A68F1
:1022B00013469B001344233B1F2202FA03F3DB4324
:1022C00019403B6818683B685A6813469B001344E2
:1022D000233B00FA03F27B681B680A431A631BE086
:1022E0007B681B68D96A3B685A6813469B00134495
:1022F000413B1F2202FA03F3DB4319403B68186895
:102300003B685A6813469B001344413B00FA03F2B2
:102310007B681B680A43DA623B681B68092B1CD97F
:102320007B681B68D9683B681A6813465B001344D6
:102330001E3B072202FA03F3DB4319403B6898680F
:102340003B681A6813465B0013441E3B00FA03F215
:102350007B681B680A43DA6019E07B681B681969AF
:102360003B681A6813465B001344072202FA03F322
:10237000DB4319403B6898683B681A6813465B006A
:10238000134400FA03F27B681B680A431A613B6836
:102390001B68102B03D03B681B68112B32D17B6864
:1023A0001B681D4A934225D17B681B689B6803F418
:1023B0000003002B26D17B681B689A687B681B682A
:1023C00042F400029A603B681B68102B1AD1134B31
:1023D0001B68134AA2FB03239A0C13469B00134469
:1023E0005B00BB6002E0BB68013BBB60BB68002BCD
:1023F000F9D107E07B689B6A43F020027B689A6210
:102400000123FB737B68002283F82420FB7B1846A2
:102410001437BD4680BC70470024014008000020EE
:1024200083DE1B4380B584B000AF78600023FB607F
:102430000023BB607B681B689B6803F00103012BD2
:1024400040D07B681B689A687B681B6842F0010279
:102450009A601F4B1B681F4AA2FB03239B0CBB60A7
:1024600002E0BB68013BBB60BB68002BF9D1FFF702
:10247000EFFBF8601FE0FFF7EBFB0246FB68D31AA7
:10248000022B18D97B681B689B6803F00103012BA2
:1024900011D07B689B6A43F010027B689A627B686C
:1024A000DB6A43F001027B68DA627B68002283F812
:1024B0002420012307E07B681B689B6803F001036D
:1024C000012BD8D1002318461037BD4680BD00BF70
:1024D0000800002083DE1B4380B584B000AF786025
:1024E0000023FB607B681B689B6803F00103012BE2
:1024F0002ED17B681B689A687B681B6822F00102FA
:102500009A60FFF7A5FBF8601BE0FFF7A1FB02460E
:10251000FB68D31A022B14D97B681B689B6803F0F5
:102520000103012B0DD17B689B6A43F010027B688D
:102530009A627B68DB6A43F001027B68DA620123FE
:1025400007E07B681B689B6803F00103012BDCD06C
:10255000002318461037BD4680BD000080B485B00A
:1025600000AF78607B6803F00703FB600C4BDB680F
:10257000BB60BA684FF6FF031340BB60FB681A02EA
:10258000BB68134343F0BF6343F40033BB60044AAA
:10259000BB68D36000BF1437BD4680BC704700BF26
:1025A00000ED00E080B400AF044BDB681B0A03F0D1
:1025B00007031846BD4680BC704700BF00ED00E031
:1025C00080B483B000AF0346FB7197F90730002B4E
:1025D0000BDBFB7903F01F02064997F907305B0913
:1025E000012000FA02F241F8232000BF0C37BD465B
:1025F00080BC704700E100E080B483B000AF0346C8
:102600003960FB7197F90730002B0ADB3B68DAB2BF
:102610000C4997F907301201D2B20B4483F800231A
:102620000AE03B68DAB20849FB7903F00F03043B88
:102630001201D2B20B441A7600BF0C37BD4680BCE3
:10264000704700BF00E100E000ED00E080B489B019
:1026500000AFF860B9607A60FB6803F00703FB61C4
:10266000FB69C3F10703042B28BF0423BB61FB698B
:102670000433062B02D9FB69033B00E000237B6196
:102680004FF0FF32BB6902FA03F3DA43BB681A402A
:102690007B699A404FF0FF317B6901FA03F3D9431C
:1026A0007B680B40134318462437BD4680BC7047F7
:1026B00080B582B000AF78607B68013BB3F1807F6A
:1026C00001D301230FE00A4A7B68013B53600F21CD
:1026D0004FF0FF30FFF790FF054B00229A60044B4C
:1026E00007221A60002318460837BD4680BD00BF88
:1026F00010E000E080B582B000AF78607868FFF746
:102700002DFF00BF0837BD4680BD80B586B000AF45
:102710000346B9607A60FB7300237B61FFF742FFD9
:1027200078617A68B9687869FFF790FF024697F98F
:102730000F3011461846FFF75FFF00BF1837BD4640
:1027400080BD80B582B000AF0346FB7197F90730BA
:102750001846FFF735FF00BF0837BD4680BD80B57E
:1027600082B000AF78607868FFF7A2FF0346184692
:102770000837BD4680BD80B485B000AF78600023C7
:10278000FB737B6893F82130DBB2022B08D07B68A7
:1027900004229A637B68002283F82020012320E032
:1027A0007B681B681A687B681B6822F00E021A603F
:1027B0007B681B681A687B681B6822F001021A603C
:1027C0007B681A6C7B68DB6B012101FA02F25A60AC
:1027D0007B68012283F821207B68002283F8202077
:1027E000FB7B18461437BD4680BC704780B584B06B
:1027F00000AF78600023FB737B6893F82130DBB275
:10280000022B05D07B6804229A630123FB7351E0FD
:102810007B681B681A687B681B6822F00E021A60CE
:102820007B681B681A687B681B6822F001021A60CB
:102830007B681B68224A934229D07B681B68214A27
:10284000934222D07B681B681F4A93421AD07B6850
:102850001B681E4A934212D07B681B681C4A934235
:102860000AD07B681B681B4A934202D14FF4801345
:102870000EE04FF080730BE04FF4803308E04FF42C
:10288000805305E04FF4807302E0102300E0012341
:10289000114A53607B68012283F821207B68002263
:1028A00083F820207B685B6B002B03D07B685B6B1D
:1028B00078689847FB7B18461037BD4680BD00BF3F
:1028C000080002401C000240300002404400024068
:1028D000580002406C0002400000024080B48BB0FF
:1028E00000AF7860396000237B6200233B6269E1BE
:1028F00001227B6A02FA03F3FB613B681B68FA69F9
:102900001340BB61BA69FB699A4240F058813B6849
:102910005B689A4A93425ED0984A934275D8984A27
:10292000934258D0964A93426FD8964A934252D0D7
:10293000944A934269D8944A93424CD0924A934223
:1029400063D8924A934246D0904A93425DD8122B64
:102950002AD8122B59D801A252F823F0D7290008FF
:10296000B1290008C3290008052A00080B2A00081D
:102970000B2A00080B2A00080B2A00080B2A000863
:102980000B2A00080B2A00080B2A00080B2A000853
:102990000B2A00080B2A00080B2A00080B2A000843
:1029A000B9290008CD290008794A934213D02CE0B8
:1029B0003B68DB683B6229E03B68DB6804333B62D1
:1029C00024E03B68DB6808333B621FE03B68DB6860
:1029D0000C333B621AE03B689B68002B02D1042356
:1029E0003B6213E03B689B68012B05D108233B62E7
:1029F0007B68FA691A6109E008233B627B68FA691F
:102A00005A6103E000233B6200E000BFBB69FF2B7B
:102A100001D87B6801E07B6804337B61BB69FF2BD5
:102A200002D87B6A9B0002E07B6A083B9B003B610B
:102A30007B691A680F213B6901FA03F3DB431A40F3
:102A4000396A3B6901FA03F31A437B691A603B68F0
:102A50005B6803F08053002B00F0B1804D4B9B6905
:102A60004C4A43F0010393614A4B9B6903F0010315
:102A7000BB60BB68484A7B6A9B08023352F823302C
:102A8000FB607B6A03F003039B000F2202FA03F34F
:102A9000DB43FA681340FB607B68404A934213D0E3
:102AA0007B683F4A93420DD07B683E4A934207D0F1
:102AB0007B683D4A934201D1032306E0042304E0EE
:102AC000022302E0012300E000237A6A02F00302FD
:102AD00092009340FA681343FB602F497B6A9B087E
:102AE0000233FA6841F823203B685B6803F48013E3
:102AF000002B06D02D4B9A682C49BB6913438B6081
:102B000006E02A4B9A68BB69DB43284913408B6077
:102B10003B685B6803F40013002B06D0234BDA6894
:102B20002249BB691343CB6006E0204BDA68BB69DE
:102B3000DB431E491340CB603B685B6803F4003302
:102B4000002B06D0194B5A681849BB6913434B60D8
:102B500006E0164B5A68BB69DB43144913404B60CF
:102B60003B685B6803F48033002B21D00F4B1A685D
:102B70000E49BB6913430B6021E000BF0000321017
:102B8000000031100000221000002110000012107F
:102B90000000111000100240000001400008014038
:102BA000000C0140001001400014014000040140ED
:102BB0000B4B1A68BB69DB43094913400B607B6A06
:102BC00001337B623B681A687B6A22FA03F3002BAD
:102BD0007FF48EAE00BF00BF2C37BD4680BC70476F
:102BE0000004014080B483B000AF78600B467B8066
:102BF00013467B707B78002B03D07A887B681A6140
:102C000003E07B881A047B681A6100BF0C37BD465D
:102C100080BC704780B485B000AF78600B467B8085
:102C20007B68DB68FB607A88FB6813401A04FB68EA
:102C3000D9437B880B401A437B681A6100BF143765
:102C4000BD4680BC7047000080B582B000AF03462F
:102C5000FB80084B5A69FB881340002B06D0054ABD
:102C6000FB885361FB881846FEF7BAF900BF0837A6
:102C7000BD4680BD0004014080B586B000AF7860DD
:102C80007B68002B01D1012372E27B681B6803F093
:102C90000103002B00F08780924B5B6803F00C036C
:102CA000042B0CD08F4B5B6803F00C03082B12D164
:102CB0008C4B5B6803F48033B3F5803F0BD1894BB9
:102CC0001B6803F40033002B6CD07B685B68002B1F
:102CD00068D101234CE27B685B68B3F5803F06D185
:102CE000804B1B687F4A43F4803313602EE07B687F
:102CF0005B68002B0CD17B4B1B687A4A23F4803332
:102D00001360784B1B68774A23F4802313601DE01F
:102D10007B685B68B3F5A02F0CD1724B1B68714ABE
:102D200043F4802313606F4B1B686E4A43F4803377
:102D300013600BE06B4B1B686A4A23F4803313600B
:102D4000684B1B68674A23F4802313607B685B68C9
:102D5000002B13D0FEF77CFF386108E0FEF778FF08
:102D600002463B69D31A642B01D9032300E25D4B71
:102D70001B6803F40033002BF0D014E0FEF768FF6B
:102D8000386108E0FEF764FF02463B69D31A642B02
:102D900001D90323ECE1534B1B6803F40033002BF0
:102DA000F0D100E000BF7B681B6803F00203002B3A
:102DB00063D04C4B5B6803F00C03002B0BD0494BEA
:102DC0005B6803F00C03082B1CD1464B5B6803F4D3
:102DD0008033002B16D1434B1B6803F00203002BFA
:102DE00005D07B681B69012B01D00123C0E13D4B5D
:102DF0001B6823F0F8027B685B69DB0039491343E9
:102E00000B603AE07B681B69002B20D0364B012217
:102E10001A60FEF71DFF386108E0FEF719FF024651
:102E20003B69D31A022B01D90323A1E12D4B1B6867
:102E300003F00203002BF0D02A4B1B6823F0F802AA
:102E40007B685B69DB00274913430B6015E0264B69
:102E500000221A60FEF7FCFE386108E0FEF7F8FE7B
:102E600002463B69D31A022B01D9032380E11D4B93
:102E70001B6803F00203002BF0D17B681B6803F092
:102E80000803002B3AD07B689B69002B19D0174BA5
:102E900001221A60FEF7DCFE386108E0FEF7D8FE7A
:102EA00002463B69D31A022B01D9032360E10D4B83
:102EB0005B6A03F00203002BF0D0012000F0CEFA91
:102EC0001CE00A4B00221A60FEF7C2FE38610FE0D8
:102ED000FEF7BEFE02463B69D31A022B08D9032334
:102EE00046E100BF0010024000004242800442421E
:102EF000924B5B6A03F00203002BE9D17B681B68ED
:102F000003F00403002B00F0A6800023FB758B4B1D
:102F1000DB6903F08053002B0DD1884BDB69874AB6
:102F200043F08053D361854BDB6903F08053BB6072
:102F3000BB680123FB75824B1B6803F48073002B75
:102F400018D17F4B1B687E4A43F480731360FEF7F1
:102F50007FFE386108E0FEF77BFE02463B69D31A2C
:102F6000642B01D9032303E1754B1B6803F48073C1
:102F7000002BF0D07B68DB68012B06D16F4B1B6AFE
:102F80006E4A43F0010313622DE07B68DB68002B7F
:102F90000CD16A4B1B6A694A23F001031362674B29
:102FA0001B6A664A23F0040313621CE07B68DB683B
:102FB000052B0CD1614B1B6A604A43F0040313627A
:102FC0005E4B1B6A5D4A43F0010313620BE05B4BEF
:102FD0001B6A5A4A23F001031362584B1B6A574A73
:102FE00023F0040313627B68DB68002B15D0FEF727
:102FF0002FFE38610AE0FEF72BFE02463B69D31A2A
:1030000041F28832934201D90323B1E04B4B1B6A52
:1030100003F00203002BEED014E0FEF719FE386136
:103020000AE0FEF715FE02463B69D31A41F28832E8
:10303000934201D903239BE0404B1B6A03F0020338
:10304000002BEED1FB7D012B05D13C4BDB693B4ACC
:1030500023F08053D3617B68DB69002B00F087800D
:10306000364B5B6803F00C03082B61D07B68DB698F
:10307000022B46D1334B00221A60FEF7E9FD38617E
:1030800008E0FEF7E5FD02463B69D31A022B01D9A1
:1030900003236DE0294B1B6803F00073002BF0D174
:1030A0007B681B6AB3F5803F08D1244B5B6823F42F
:1030B00000327B689B68214913434B601F4B5B6860
:1030C00023F474127B68196A7B685B6A0B431B49A3
:1030D00013434B601B4B01221A60FEF7B9FD3861A8
:1030E00008E0FEF7B5FD02463B69D31A022B01D971
:1030F00003233DE0114B1B6803F00073002BF0D05D
:1031000035E0104B00221A60FEF7A2FD386108E09E
:10311000FEF79EFD02463B69D31A022B01D9032319
:1031200026E0064B1B6803F00073002BF0D11EE075
:103130007B68DB69012B07D1012319E000100240F5
:1031400000700040600042420B4B5B68FB60FB6814
:1031500003F480327B681B6A9A4206D1FB6803F451
:1031600070127B685B6A9A4201D0012300E0002361
:1031700018461837BD4680BD0010024080B584B0A7
:1031800000AF786039607B68002B01D10123D0E06B
:103190006A4B1B6803F007033A689A4210D9674BE1
:1031A0001B6823F0070265493B6813430B60634BC0
:1031B0001B6803F007033A689A4201D00123B8E084
:1031C0007B681B6803F00203002B20D07B681B6820
:1031D00003F00403002B05D0594B5B68584A43F4B5
:1031E000E06353607B681B6803F00803002B05D085
:1031F000534B5B68524A43F460535360504B5B68D7
:1032000023F0F0027B689B684D4913434B607B6859
:103210001B6803F00103002B40D07B685B68012B27
:1032200007D1474B1B6803F40033002B15D1012352
:103230007FE07B685B68022B07D1414B1B6803F082
:103240000073002B09D1012373E03D4B1B6803F091
:103250000203002B01D101236BE0394B5B6823F0A3
:1032600003027B685B68364913434B60FEF7F0FC52
:10327000F8600AE0FEF7ECFC0246FB68D31A41F264
:103280008832934201D9032353E02D4B5B6803F04E
:103290000C027B685B689B009A42EBD1274B1B6852
:1032A00003F007033A689A4210D2244B1B6823F0BC
:1032B000070222493B6813430B60204B1B6803F055
:1032C00007033A689A4201D0012332E07B681B6809
:1032D00003F00403002B08D0194B5B6823F4E06271
:1032E0007B68DB68164913434B607B681B6803F0FF
:1032F0000803002B09D0124B5B6823F460527B68F3
:103300001B69DB000E4913434B6000F021F80246B5
:103310000B4B5B681B0903F00F030A49CB5C22FAD5
:1033200003F3094A1360094B1B681846FEF74EFC6D
:10333000002318461037BD4680BD00BF0020024064
:1033400000100240F8930008080000200C00002044
:1033500080B487B000AF0023FB600023BB60002374
:103360007B6100237B6000233B611E4B5B68FB603D
:10337000FB6803F00C03042B02D0082B03D027E0DA
:10338000194B3B6127E0FB689B0C03F00F03174AC6
:10339000D35C7B60FB6803F48033002B10D0114BAF
:1033A0005B685B0C03F00103114AD35CBB607B6874
:1033B0000D4A03FB02F2BB68B2FBF3F37B6104E04E
:1033C0007B680C4A02FB03F37B617B693B6102E093
:1033D000054B3B6100BF3B6918461C37BD4680BCAE
:1033E000704700BF0010024000127A0010940008DD
:1033F0002094000800093D0080B400AF024B1B6818
:103400001846BD4680BC70470800002080B500AF5C
:10341000FFF7F2FF0246054B5B681B0A03F0070348
:103420000349CB5C22FA03F3184680BD001002402A
:103430000894000880B500AFFFF7DEFF0246054B99
:103440005B68DB0A03F007030349CB5C22FA03F352
:10345000184680BD001002400894000880B485B072
:1034600000AF78600A4B1B680A4AA2FB03235B0A81
:103470007A6802FB03F3FB6000BFFB685A1EFA6028
:10348000002BF9D100BF00BF1437BD4680BC704788
:1034900008000020D34D621080B586B000AF786080
:1034A00000233B610023FB607B681B6803F0010382
:1034B000002B7DD00023FB754F4BDB6903F080535D
:1034C000002B0DD14C4BDB694B4A43F08053D36149
:1034D000494BDB6903F08053BB60BB680123FB757C
:1034E000464B1B6803F48073002B18D1434B1B68B9
:1034F000424A43F480731360FEF7AAFB386108E088
:10350000FEF7A6FB02463B69D31A642B01D90323BD
:103510006DE03A4B1B6803F48073002BF0D0364B00
:103520001B6A03F44073FB60FB68002B2ED07B68A2
:103530005B6803F44073FA689A4227D02E4B1B6AEB
:1035400023F44073FB602E4B01221A602C4B0022A7
:103550001A60294AFB681362FB6803F00103002B21
:1035600014D0FEF775FB38610AE0FEF771FB0246E6
:103570003B69D31A41F28832934201D9032336E0E2
:103580001D4B1B6A03F00203002BEED01A4B1B6A83
:1035900023F440727B685B68174913430B62FB7D21
:1035A000012B05D1144BDB69134A23F08053D361FF
:1035B0007B681B6803F00203002B08D00E4B5B688E
:1035C00023F440427B689B680B4913434B607B6844
:1035D0001B6803F01003002B08D0074B5B6823F433
:1035E00080027B68DB68044913434B600023184664
:1035F0001837BD4680BD00BF00100240007000407B
:103600004004424280B588B000AF786000237B61FF
:103610000023FB6100233B610023FB600023BB61AF
:103620007B68102B0AD07B68102B00F28A807B68A5
:10363000012B45D07B68022B75D082E0464B5B683E
:10364000FB60454B1B6803F08073002B7BD0FB684D
:103650009B0C03F00F03414AD35C3B61FB6803F40E
:103660008033002B15D03C4B5B685B0C03F00103EF
:103670003B4AD35C7B61FB6803F48033002B0DD0A5
:10368000384A7B69B2FBF3F23B6902FB03F3FB614F
:1036900004E03B69344A02FB03F3FB612E4B5B6899
:1036A00003F48003B3F5800F02D1FB69BB614AE0EC
:1036B000FB695B002D4AA2FB03235B08BB6142E070
:1036C000254B1B6AFB60FB6803F44073B3F5807FF6
:1036D00008D1FB6803F00203002B03D04FF4004332
:1036E000BB611FE0FB6803F44073B3F5007F09D1B1
:1036F000194B5B6A03F00203002B03D049F64043E9
:10370000BB610FE0FB6803F44073B3F5407F1CD14D
:10371000114B1B6803F40033002B16D04FF22443E7
:10372000BB6112E011E0FFF785FE02460A4B5B68C1
:103730009B0B03F0030301335B00B2FBF3F3BB61AC
:1037400004E000BF02E000BF00E000BFBB69184614
:103750002037BD4680BD00BF001002402494000801
:103760003494000800127A0000093D00ABAAAAAA0E
:1037700080B582B000AF78607B68002B01D1012357
:1037800041E07B6893F83D30DBB2002B06D17B68CB
:10379000002283F83C207868FEF74EF87B6802220E
:1037A00083F83D207B681A687B680433194610460D
:1037B00000F05CFA7B68012283F846207B680122D6
:1037C00083F83E207B68012283F83F207B6801223A
:1037D00083F840207B68012283F841207B68012226
:1037E00083F842207B68012283F843207B68012212
:1037F00083F844207B68012283F845207B680122FE
:1038000083F83D20002318460837BD4680BD0000E0
:1038100080B485B000AF78607B6893F83D30DBB250
:10382000012B01D001233AE07B68022283F83D207E
:103830007B681B68DA687B681B6842F00102DA600B
:103840007B681B68184A93420ED07B681B68B3F1F3
:10385000804F09D07B681B68144A934204D07B6870
:103860001B68134A934211D17B681B689B6803F065
:103870000703FB60FB68062B10D07B681B681A6887
:103880007B681B6842F001021A6007E07B681B68D6
:103890001A687B681B6842F001021A600023184610
:1038A0001437BD4680BC7047002C01400004004026
:1038B0000008004080B584B000AF78607B681B686A
:1038C000DB68FB607B681B681B69BB60BB6803F03F
:1038D0000203002B20D0FB6803F00203002B1BD057
:1038E0007B681B686FF002021A617B6801221A77FD
:1038F0007B681B689B6903F00303002B03D0786887
:1039000000F098F905E0786800F08BF9786800F02D
:103910009AF97B6800221A77BB6803F00403002B36
:1039200020D0FB6803F00403002B1BD07B681B68CE
:103930006FF004021A617B6802221A777B681B68A9
:103940009B6903F44073002B03D0786800F072F990
:1039500005E0786800F065F9786800F074F97B6834
:1039600000221A77BB6803F00803002B20D0FB6805
:1039700003F00803002B1BD07B681B686FF0080264
:103980001A617B6804221A777B681B68DB6903F085
:103990000303002B03D0786800F04CF905E0786849
:1039A00000F03FF9786800F04EF97B6800221A7742
:1039B000BB6803F01003002B20D0FB6803F010035A
:1039C000002B1BD07B681B686FF010021A617B68AC
:1039D00008221A777B681B68DB6903F44073002BAD
:1039E00003D0786800F026F905E0786800F019F94E
:1039F000786800F028F97B6800221A77BB6803F02A
:103A00000103002B0CD0FB6803F00103002B07D04F
:103A10007B681B686FF001021A617868FDF7FAFA9B
:103A2000BB6803F08003002B0CD0FB6803F080031D
:103A3000002B07D07B681B686FF080021A617868E2
:103A400000F07FFABB6803F04003002B0CD0FB684A
:103A500003F04003002B07D07B681B686FF0400227
:103A60001A61786800F0F8F8BB6803F02003002BB7
:103A70000CD0FB6803F02003002B07D07B681B6889
:103A80006FF020021A61786800F052FA00BF103718
:103A9000BD4680BD80B584B000AF7860396000233A
:103AA000FB737B6893F83C30012B01D10223B4E017
:103AB0007B68012283F83C207B68022283F83D204A
:103AC0007B681B689B68BB60BB6823F07703BB60A7
:103AD000BB6823F47F43BB607B681B68BA689A604D
:103AE0003B681B68B3F5005F3ED0B3F5005F00F2A2
:103AF0008780B3F5805F00F08680B3F5805F7FD864
:103B0000702B1AD0702B7BD8602B50D0602B77D8BD
:103B1000502B3CD0502B73D8402B58D0402B6FD813
:103B2000302B64D0302B6BD8202B60D0202B67D863
:103B3000002B5CD0102B5AD062E07B6818683B6881
:103B400099683B685A683B68DB6800F074F97B68E9
:103B50001B689B68BB60BB6843F07703BB607B68F6
:103B60001B68BA689A604FE07B6818683B68996880
:103B70003B685A683B68DB6800F05DF97B681B684E
:103B80009A687B681B6842F480429A603CE07B68DC
:103B900018683B6859683B68DB681A4600F0D4F83F
:103BA0007B681B685021184600F02BF92CE07B68DD
:103BB00018683B6859683B68DB681A4600F0F2F801
:103BC0007B681B686021184600F01BF91CE07B68CD
:103BD00018683B6859683B68DB681A4600F0B4F81F
:103BE0007B681B684021184600F00BF90CE07B68ED
:103BF0001A683B681B681946104600F002F903E09A
:103C00000123FB7300E000BF7B68012283F83D20A5
:103C10007B68002283F83C20FB7B18461037BD46AA
:103C200080BD80B483B000AF786000BF0C37BD4664
:103C300080BC704780B483B000AF786000BF0C37A1
:103C4000BD4680BC704780B483B000AF786000BFD1
:103C50000C37BD4680BC704780B483B000AF78603D
:103C600000BF0C37BD4680BC7047000080B485B0F3
:103C700000AF786039607B681B68FB607B682F4A07
:103C800093420BD07B68B3F1804F07D07B682C4AFE
:103C9000934203D07B682B4A934208D1FB6823F000
:103CA0007003FB603B685B68FA681343FB607B68EA
:103CB000224A93420BD07B68B3F1804F07D07B68D8
:103CC0001F4A934203D07B681E4A934208D1FB6887
:103CD00023F44073FB603B68DB68FA681343FB60C6
:103CE000FB6823F080023B685B691343FB607B68E1
:103CF000FA681A603B689A687B68DA623B681A68FF
:103D00007B689A627B680D4A934203D13B681A69CB
:103D10007B681A637B6801225A617B681B6903F028
:103D20000103002B05D07B681B6923F001027B682F
:103D30001A6100BF1437BD4680BC7047002C01409B
:103D4000000400400008004080B487B000AFF86075
:103D5000B9607A60FB681B6A7B61FB681B6A23F0B1
:103D60000102FB681A62FB689B693B613B6923F0B7
:103D7000F0033B617B681B013A6913433B617B693C
:103D800023F00A037B617A69BB6813437B61FB689C
:103D90003A699A61FB687A691A6200BF1C37BD46AE
:103DA00080BC704780B487B000AFF860B9607A60BB
:103DB000FB681B6A7B61FB681B6A23F01002FB68CF
:103DC0001A62FB689B693B613B6923F470433B616A
:103DD0007B681B033A6913433B617B6923F0A003B3
:103DE0007B61BB681B017A6913437B61FB683A699D
:103DF0009A61FB687A691A6200BF1C37BD4680BCB5
:103E0000704780B485B000AF786039607B689B688C
:103E1000FB60FB6823F07003FB603A68FB681343A8
:103E200043F00703FB607B68FA689A6000BF1437B1
:103E3000BD4680BC704780B487B000AFF860B96001
:103E40007A603B60FB689B687B617B6923F47F43FE
:103E50007B613B681A027B681A43BB6813437A692B
:103E600013437B61FB687A699A6000BF1C37BD46CB
:103E700080BC704780B485B000AF786039607B68E3
:103E800093F83C30012B01D1022346E07B680122EC
:103E900083F83C207B68022283F83D207B681B6806
:103EA0005B68FB607B681B689B68BB60FB6823F0FA
:103EB0007003FB603B681B68FA681343FB607B6818
:103EC0001B68FA685A607B681B68164A93420ED0DA
:103ED0007B681B68B3F1804F09D07B681B68124A6E
:103EE000934204D07B681B68104A93420CD1BB6894
:103EF00023F08003BB603B685B68BA681343BB6018
:103F00007B681B68BA689A607B68012283F83D2051
:103F10007B68002283F83C20002318461437BD46F6
:103F200080BC7047002C01400004004000080040A5
:103F300080B483B000AF786000BF0C37BD4680BC52
:103F4000704780B483B000AF786000BF0C37BD46C7
:103F500080BC704780B582B000AF78607B68002B72
:103F600001D1012342E07B6893F84130DBB2002BA2
:103F700006D17B68002283F840207868FDF780FC3A
:103F80007B68242283F841207B681B68DA687B68A1
:103F90001B6822F40052DA60786800F0F9FD7B6853
:103FA0001B681A697B681B6822F490421A617B685F
:103FB0001B685A697B681B6822F02A025A617B6879
:103FC0001B68DA687B681B6842F40052DA607B6821
:103FD00000225A647B68202283F841207B682022DB
:103FE00083F842207B6800225A6300231846083772
:103FF000BD4680BD80B58AB002AFF860B9603B6055
:104000001346FB8000237B61FB6893F84130DBB2F1
:10401000202B75D1BB68002B02D0FB88002B01D16F
:1040200001236EE0FB6800225A64FB68212283F8BA
:104030004120FDF70DFE7861FB68FA889A84FB68E1
:10404000FA88DA84FB689B68B3F5805F08D1FB6867
:104050001B69002B04D10023FB61BB68BB6103E03B
:10406000BB68FB610023BB612EE03B6800937B696A
:1040700000228021F86800F097FB0346002B05D052
:10408000FB68202283F8412003233AE0FB69002BE0
:104090000BD1BB691B881A46FB681B68C2F3080278
:1040A0005A60BB690233BB6107E0FB691A78FB68A1
:1040B0001B685A60FB690133FB61FB68DB8C9BB2B8
:1040C000013B9AB2FB68DA84FB68DB8C9BB2002B65
:1040D000CBD13B6800937B6900224021F86800F057
:1040E00063FB0346002B05D0FB68202283F84120A8
:1040F000032306E0FB68202283F84120002300E030
:10410000022318462037BD4680BD80B58AB002AF75
:10411000F860B9603B601346FB8000237B61FB685D
:1041200093F84230DBB2202B40F08180BB68002B3B
:1041300002D0FB88002B01D1012379E0FB6800222B
:104140005A64FB68222283F84220FB6800221A632B
:10415000FDF77EFD7861FB68FA889A85FB68FA882E
:10416000DA85FB689B68B3F5805F08D1FB681B6943
:10417000002B04D10023FB61BB68BB6103E0BB687B
:10418000FB610023BB6147E03B6800937B69002231
:104190002021F86800F008FB0346002B05D0FB68DF
:1041A000202283F84220032342E0FB69002B0CD13C
:1041B000FB681B685B689BB2C3F308039AB2BB69D8
:1041C0001A80BB690233BB611FE0FB689B68B3F5D3
:1041D000805F07D0FB689B68002B0AD1FB681B69D6
:1041E000002B06D1FB681B685B68DAB2FB691A70AA
:1041F00008E0FB681B685B68DBB203F07F03DAB2A0
:10420000FB691A70FB690133FB61FB68DB8D9BB2B4
:10421000013B9AB2FB68DA85FB68DB8D9BB2002B11
:10422000B2D1FB68202283F84220002300E0022361
:1042300018462037BD4680BD80B5BAB000AF786063
:104240007B681B681B68C7F8E4307B681B68DB6809
:10425000C7F8E0307B681B685B69C7F8DC30002377
:10426000C7F8D8300023C7F8D430D7F8E43003F0CB
:104270000F03C7F8D830D7F8D830002B0FD1D7F8B4
:10428000E43003F02003002B09D0D7F8E03003F02E
:104290002003002B03D0786800F0BCFB5BE2D7F86A
:1042A000D830002B00F0DE80D7F8DC3003F00103BB
:1042B000002B06D1D7F8E03003F49073002B00F008
:1042C000D180D7F8E43003F00103002B0BD0D7F8EE
:1042D000E03003F48073002B05D07B685B6C43F007
:1042E00001027B685A64D7F8E43003F00403002B22
:1042F0000BD0D7F8DC3003F00103002B05D07B682E
:104300005B6C43F002027B685A64D7F8E43003F038
:104310000203002B0BD0D7F8DC3003F00103002B95
:1043200005D07B685B6C43F004027B685A64D7F865
:10433000E43003F00803002B11D0D7F8E03003F08D
:104340002003002B05D1D7F8DC3003F00103002B4C
:1043500005D07B685B6C43F008027B685A647B681D
:104360005B6C002B00F0F281D7F8E43003F02003FF
:10437000002B08D0D7F8E03003F02003002B02D048
:10438000786800F047FB7B681B685B6903F04003BB
:10439000002B14BF01230023DBB2C7F8D4307B68A5
:1043A0005B6C03F00803002B03D1D7F8D430002B4B
:1043B0004FD0786800F051FA7B681B685B6903F0A6
:1043C0004003002B41D07B681B681433C7F89C3036
:1043D000D7F89C3053E8003FC7F89830D7F89830AA
:1043E00023F04003C7F8D0307B681B681433D7F83C
:1043F000D020C7F8A820C7F8A430D7F8A410D7F861
:10440000A82041E80023C7F8A030D7F8A030002B3F
:10441000D9D17B68DB6B002B13D07B68DB6B7E4ACA
:104420005A637B68DB6B1846FEF7E0F90346002B06
:1044300016D07B68DB6B5B6B7A68D26B1046984753
:104440000EE0786800F09CF90AE0786800F098F9CE
:1044500006E0786800F094F97B6800225A6475E100
:1044600000BF73E17B681B6B012B40F04F81D7F8D5
:10447000E43003F01003002B00F04881D7F8E0305F
:1044800003F01003002B00F041810023BB607B6828
:104490001B681B68BB607B681B685B68BB60BB6894
:1044A0007B681B685B6903F04003002B00F0B6805B
:1044B0007B68DB6B1B685B68A7F8BE30B7F8BE3063
:1044C000002B00F045817B689B8DB7F8BE209A4297
:1044D00080F03E817B68B7F8BE20DA857B68DB6BB5
:1044E0009B69202B00F088807B681B680C33C7F821
:1044F0008830D7F8883053E8003FC7F88430D7F8C1
:10450000843023F48073C7F8B8307B681B680C33A1
:10451000D7F8B820C7F89420C7F89030D7F8901093
:10452000D7F8942041E80023C7F88C30D7F88C30B6
:10453000002BD9D17B681B6814337B677B6F53E8F2
:10454000003F3B673B6F23F00103C7F8B4307B6843
:104550001B681433D7F8B420C7F88020FB67F96FC5
:10456000D7F8802041E80023BB67BB6F002BE1D167
:104570007B681B6814333B663B6E53E8003FFB656A
:10458000FB6D23F04003C7F8B0307B681B68143321
:10459000D7F8B020FA66BB66B96EFA6E41E8002320
:1045A0007B667B6E002BE3D17B68202283F8422060
:1045B0007B6800221A637B681B680C33FB64FB6C0E
:1045C00053E8003FBB64BB6C23F01003C7F8AC306A
:1045D0007B681B680C33D7F8AC20BA657B65796DB6
:1045E000BA6D41E800233B653B6D002BE3D17B684E
:1045F000DB6B1846FEF7BFF87B6802225A637B68C4
:104600009A8D7B68DB8D9BB2D31A9BB21946786872
:1046100000F0BFF89CE000BF1F4900087B689A8D3E
:104620007B68DB8D9BB2D31AA7F8CE307B68DB8D1D
:104630009BB2002B00F08E80B7F8CE30002B00F03C
:1046400089807B681B680C33BB63BB6B53E8003FFE
:104650007B637B6B23F49073C7F8C8307B681B685F
:104660000C33D7F8C8207A643B64396C7A6C41E823
:104670000023FB63FB6B002BE3D17B681B681433C7
:104680007B627B6A53E8003F3B623B6A23F0010395
:10469000C7F8C4307B681B681433D7F8C4203A636A
:1046A000FB62F96A3A6B41E80023BB62BB6A002BEC
:1046B000E3D17B68202283F842207B6800221A63C2
:1046C0007B681B680C333B613B6953E8003FFB6030
:1046D000FB6823F01003C7F8C0307B681B680C33FD
:1046E000D7F8C020FA61BB61B969FA6941E80023D3
:1046F0007B617B69002BE3D17B6802225A63B7F8A8
:10470000CE301946786800F044F823E0D7F8E4305A
:1047100003F08003002B09D0D7F8E03003F08003CA
:10472000002B03D0786800F00EF914E0D7F8E430DD
:1047300003F04003002B0ED0D7F8E03003F0400325
:10474000002B08D0786800F04DF904E000BF02E0CB
:1047500000BF00E000BFE837BD4680BD80B483B035
:1047600000AF786000BF0C37BD4680BC704780B496
:1047700083B000AF786000BF0C37BD4680BC704787
:1047800080B483B000AF786000BF0C37BD4680BCFA
:10479000704780B483B000AF78600B467B8000BF69
:1047A0000C37BD4680BC704780B586B000AFF8605E
:1047B000B9603B601346FB713BE03B6AB3F1FF3FDE
:1047C00037D0FDF745FA02463B68D31A3A6A9A4257
:1047D00002D33B6A002B01D103233AE0FB681B683C
:1047E000DB6803F00403002B23D0BB68802B20D0B0
:1047F000BB68402B1DD0FB681B681B6803F00803D7
:10480000082B16D100237B61FB681B681B687B614A
:10481000FB681B685B687B617B69F86800F01DF8CA
:10482000FB6808225A64FB68002283F840200123B9
:104830000FE0FB681B681A68BB681340BA689A42AD
:104840000CBF01230023DBB21A46FB799A42B4D095
:10485000002318461837BD4680BD80B495B000AF20
:1048600078607B681B680C337B637B6B53E8003F8D
:104870003B633B6B23F49073FB647B681B680C33D6
:10488000FA6C3A64FB63F96B3A6C41E80023BB6352
:10489000BB6B002BE5D17B681B6814333B623B6A22
:1048A00053E8003FFB61FB6923F00103BB647B68B5
:1048B0001B681433BA6CFA62BB62B96AFA6A41E8DF
:1048C00000237B627B6A002BE5D17B681B6B012B8D
:1048D00019D17B681B680C33FB60FB6853E8003F11
:1048E000BB60BB6823F010037B647B681B680C33E0
:1048F0007A6CBA617B617969BA6941E800233B61EE
:104900003B69002BE5D17B68202283F842207B683D
:1049100000221A6300BF5437BD4680BC704780B583
:1049200084B000AF78607B685B6AFB60FB68002244
:10493000DA85FB680022DA84F868FFF721FF00BF00
:104940001037BD4680BD80B485B000AF78607B680D
:1049500093F84130DBB2212B3ED17B689B68B3F5E5
:10496000805F14D17B681B69002B10D17B681B6AA8
:10497000FB60FB681B881A467B681B68C2F3080251
:104980005A607B681B6A9A1C7B681A6208E07B6825
:104990001B6A591C7A6811621A787B681B685A6016
:1049A0007B68DB8C9BB2013B9BB27A681946D18451
:1049B000002B0FD17B681B68DA687B681B6822F0CC
:1049C0008002DA607B681B68DA687B681B6842F0EB
:1049D0004002DA60002300E0022318461437BD4687
:1049E00080BC704780B582B000AF78607B681B6880
:1049F000DA687B681B6822F04002DA607B6820225C
:104A000083F841207868FFF7A9FE0023184608378D
:104A1000BD4680BD80B58CB000AF78607B6893F8F0
:104A20004230DBB2222B40F0AE807B689B68B3F54E
:104A3000805F17D17B681B69002B13D10023FB62B9
:104A40007B689B6ABB627B681B685B689BB2C3F335
:104A500008039AB2BB6A1A807B689B6A9A1C7B68BF
:104A60009A6226E07B689B6AFB620023BB627B68DC
:104A70009B68B3F5805F07D07B689B68002B0AD1E9
:104A80007B681B69002B06D17B681B685B68DAB208
:104A9000FB6A1A7008E07B681B685B68DBB203F096
:104AA0007F03DAB2FB6A1A707B689B6A5A1C7B68C8
:104AB0009A627B68DB8D9BB2013B9BB27A68194698
:104AC000D185002B5DD17B681B68DA687B681B6829
:104AD00022F02002DA607B681B68DA687B681B685A
:104AE00022F48072DA607B681B685A697B681B68F5
:104AF00022F001025A617B68202283F842207B6801
:104B000000225A637B681B6B012B35D17B68002226
:104B10001A637B681B680C337B617B6953E8003F39
:104B20003B613B6923F010037B627B681B680C339D
:104B30007A6A3A62FB61F9693A6A41E80023BB612B
:104B4000BB69002BE5D17B681B681B6803F0100371
:104B5000102B0AD10023FB607B681B681B68FB607D
:104B60007B681B685B68FB60FB687B689B8D1946F4
:104B70007868FFF70EFE02E07868FFF7F8FD002383
:104B800002E0002300E0022318463037BD4680BD16
:104B900080B584B000AF78607B681B681B6923F424
:104BA00040517B68DA687B681B680A431A617B683E
:104BB0009A687B681B691A437B685B691343BB6017
:104BC0007B681B68DB6823F4B05323F00C037A681E
:104BD0001268B9680B43D3607B681B685B6923F478
:104BE00040717B689A697B681B680A435A617B68DD
:104BF0001B682C4A934203D1FEF71CFCF86002E0CC
:104C0000FEF704FCF860FA6813469B0013449A0010
:104C10001A447B685B689B00B2FBF3F3224AA2FB59
:104C200003235B091901FA6813469B0013449A0099
:104C30001A447B685B689B00B2FBF3F21A4BA3FB40
:104C400002035B09642000FB03F3D31A1B01323318
:104C5000154AA2FB03235B0903F0F0031944FA6829
:104C600013469B0013449A001A447B685B689B00C0
:104C7000B2FBF3F20C4BA3FB02035B09642000FBC5
:104C800003F3D31A1B013233074AA2FB03235B0948
:104C900003F00F027B681B680A449A6000BF10375C
:104CA000BD4680BD003801401F85EB51002B2DE92A
:104CB000F0471D46BBBF03F100431D4600232D23D3
:104CC00088B01446B8BF1446129A109E1370149BF5
:104CD000DDF84CA023F02008B8F1460F05D0B8F15C
:104CE000450F00D10136022300E0032307AA0492F6
:104CF00006AACDE902A2CDE9003622462B4601F0F4
:104D000083F8B8F1470F074619D1119BDB070ED581
:104D100000EB06090022002320462946FBF7F8FE97
:104D200008B1CDF81C903022079B4B451ED3384666
:104D3000079B159ADB1B136008B0BDE8F087B8F13C
:104D4000460F00EB0609E5D10378302B0AD100228B
:104D5000002320462946FBF7DBFE18B9C6F1010601
:104D6000CAF80060DAF800309944D3E7591C07917B
:104D70001A70D9E7F7B50029B6BF2D232B23494276
:104D800009290270437029DD0DF107031D460A272A
:104D9000B1FBF7F61A4607FB1614303402F8014C43
:104DA0000C46632C314603F1FF33F1DC3031941EA5
:104DB00003F8011C2346411CAB420AD30DF1090341
:104DC0009B1AAC4288BF002302330344181A03B075
:104DD000F0BD13F8016B01F8016FEDE730233031BE
:104DE0008370C170031DF1E72DE9F04F91B00C46BF
:104DF000DDF8688016461F46054600F0F1FE0368A0
:104E000018460893FBF7A4F900230E93D8F8003056
:104E10000990073323F0070303F1080294F818A060
:104E2000D4F800B0C8F80020D3E9008929F0004385
:104E30000B93CDF828804FF0FF32DDE90A01C4E979
:104E400012899C4BFBF796FE70BBDDE90A014FF01F
:104E5000FF32984BFBF770FE30BB00220023404628
:104E60004946FBF75FFE10B12D2384F84330924A88
:104E7000924BBAF1470F94BF9046984603234FF0E8
:104E8000000923612BF004032360334621462846A2
:104E900000970FAA00F0D4F9013040F090804FF055
:104EA000FF3011B0BDE8F08F42464B4640464946C0
:104EB000FBF760FE48B14B46002BB8BF2D23804A5C
:104EC000B8BF84F843307F4BD3E763680AF0DF0153
:104ED0005A1C3FD10623636000224BF48063236099
:104EE00006920EAACDE904A20DAA03920DF1330297
:104EF000CDE9013263684246009328464B460A9149
:104F0000FFF7D4FE0A99804647290D9928D1C81C7D
:104F100002DB6368994240DDAAF1020A5FFA8AFA6D
:104F20005246013904F150000D91FFF723FF0E9A0C
:104F300081461318012A236102DC2268D20701D5B9
:104F4000013323619DF83330002B9ED02D2384F84C
:104F500043309AE74729BFD1002BBDD10123BAE7DF
:104F6000BAF1650FDCD9BAF1660F18D10029636870
:104F70000BDD216113B92268D00702D501330B4440
:104F800023614FF00009A165DCE713B92268D2075D
:104F900001D50233F4E70123F2E74FF0670A0E9BD5
:104FA000994205DB23682161D807EAD54B1CE7E766
:104FB0000029CCBF0122C1F102021344E0E72368BB
:104FC0005A0507D42369424631462846B84701307E
:104FD0002BD164E7BAF1650F40F2DC80D4E912010D
:104FE00000220023FBF794FD002833D00123314633
:104FF0002846354AB84701303FF451AFDDE90D3856
:10500000434502DB2368D8070FD5DDE90823314685
:105010002846B84701303FF442AF4FF0000908F18D
:10502000FF3804F11A0AC84509DC23689B0700F120
:105030000281E0680F9B9842B8BF184631E7012310
:10504000524631462846B84701303FF428AF09F1AF
:105050000109E8E70D9B002B38DC01233146284687
:10506000194AB84701303FF41AAFDDE90D3959EA62
:10507000030302D12368D907D7D5DDE908233146D8
:105080002846B84701303FF40AAF4FF0000A04F158
:105090001A0B0D9B5B42534501DC4B4693E7012302
:1050A0005A4631462846B84701303FF4F8AE0AF177
:1050B000010AEEE7FFFFEF7F369400083A940008FC
:1050C0003E9400084294000846940008A36DDDF861
:1050D00038A05345A8BF5346002B994636DC4FF005
:1050E000000B29EAE97904F11A02A36D0A93A3EBF4
:1050F00009035B4531DC0D9B9A453ADC2368DA07EE
:1051000037D40D9BAAEB03090A9BAAEB030399452D
:10511000A8BF9946B9F1000F33DC4FF0000829EA27
:10512000E97904F11A0B0D9BAAEB0303A3EB090326
:1051300043457FF77AAF01235A4631462846B847A0
:1051400001303FF4ACAE08F10108ECE742463146CD
:105150002846B8470130C2D1A1E60123314628468E
:105160000A92B84701303FF49AAE0A9A0BF1010B4C
:10517000BBE73146DDE908232846B8470130C0D1F6
:105180008DE60A9A4B46314628464244B8470130DC
:10519000C3D184E6DDF838A0BAF1010F01DCDB07EA
:1051A00036D50123424631462846B84701303FF400
:1051B00076AEDDE9082331462846B84701303FF492
:1051C0006EAED4E91201002200230AF1FF3AFBF788
:1051D0009FFCC0B9534608F1010231462846B84742
:1051E00001300CD15BE601235A4631462846B847C8
:1051F00001303FF454AE08F10108D045F3DB4B46D3
:1052000004F15002E0E64FF0000804F11A0BF4E755
:1052100001234246E1E701234A4631462846B84782
:1052200001303FF43CAE08F10108E3680F995B1AC6
:105230004345F0DCFDE64FF0000804F11909F4E7FE
:105240002DE9F047164698468A680B69074693424F
:10525000B8BF1346336091F843200C46DDF8209028
:105260000AB1013333602368990642BF33680233C1
:105270003360256815F0060506D104F1190AE368C4
:1052800032689B1AAB422BDC94F843302268003B17
:1052900018BF0123920630D44146384604F1430238
:1052A000C847013023D02368226903F00603042B8A
:1052B00014BF002533684FF0000608BFE56804F10D
:1052C0001A0408BFED1A54F8123C08BF25EAE57528
:1052D0009342C4BF9B1AED18B5421AD1002008E0D2
:1052E0000123524641463846C847013003D14FF0AA
:1052F000FF30BDE8F0870135C1E73020E11881F8C3
:1053000043005A1C94F845102244023382F843109B
:10531000C2E70123224641463846C8470130E6D05D
:105320000136D9E72DE9FF470F7E9146782F804659
:105330000C469A460C9E01F1430207D8622F0AD808
:10534000002F00F0D380582F00F0BA8004F14206FD
:1053500084F842703AE0A7F16303152BF6D801A157
:1053600051F823F0BD530008D15300084D530008F5
:105370004D5300084D5300084D530008D153000809
:105380004D5300084D5300084D5300084D5300087D
:10539000D3540008FB5300088D5400084D530008F7
:1053A0004D530008F55400084D530008FB53000806
:1053B0004D5300084D5300089554000833681A1DDA
:1053C0001B68326004F1420684F8423001239EE0FB
:1053D00033682068191D3160060601D51D6803E099
:1053E0004506FBD5B3F90050002D03DA2D236D429D
:1053F00084F843300A23594811E0216833680806CD
:1054000053F8045B02D4490648BFADB26F2F336036
:1054100014BF0A2308235148002184F8431066680A
:10542000002EA8BF2168A660A4BF21F0040121605E
:105430000DB9002E4BD01646B5FBF3F103FB115707
:10544000C75D06F8017D2F46BB420D46F4D9082BF7
:105450000BD12368DF0708D5236961689942DEBF55
:10546000302306F8013C06F1FF36921B22614B46C1
:1054700021464046CDF800A003AAFFF7E1FE013027
:105480004AD14FF0FF3004B0BDE8F087236843F005
:10549000200323607827324884F8457023683168F8
:1054A0001F0651F8045B02D45F0648BFADB23160FD
:1054B000D90744BF43F0200323601DB11023ABE79D
:1054C0002648E9E7236823F020032360F6E7164621
:1054D000BDE733682568181D616930602E061B68BA
:1054E00001D5196002E06806FBD519800023164635
:1054F0002361BCE7336800211A1D32601E686268B0
:10550000304600F0E4FB08B1801B606063682361F3
:10551000002384F84330AAE73246494640462369CF
:10552000D0470130ADD023689B0713D4E068039BBC
:105530009842B8BF1846A6E701233246494640467E
:10554000D04701309DD00135E36803995B1AAB4227
:10555000F2DCEBE7002504F11906F5E748940008B2
:10556000599400082DE9F04F87B003938B681746D4
:105570005A1EB2F5AE7F82BF6FF4AE7503EB050B1A
:1055800040F25D130A464FF0000588BF8B600B6840
:10559000804643F4F06342F81C3B0C4698BF4FF042
:1055A000000B1646AA46A946CDE90455019202957C
:1055B000A26852B13B681B784E2B65D8402B3DD872
:1055C000A3F12B01C8B20E283BD9B9F1000F03D0CB
:1055D000236823F4807323600AF1FF3ABAF1010FC4
:1055E00000F21881019B9E4200F20981012007B060
:1055F000BDE8F08FA3F161020D2AE6D801A151F8B0
:1056000022F000BF4B570008CB550008CB550008CF
:10561000CB550008AB57000883570008CB5500084E
:10562000CB55000859570008CB550008CB5500084A
:10563000CB550008CB55000811570008A3F14102D3
:10564000DAE70E29C1D801A050F821F0015700086F
:10565000CB5500080157000897570008CB550008A4
:10566000A9560008E7560008E7560008E756000864
:10567000E7560008E7560008E7560008E756000816
:10568000E7560008E75600086E2B09D8602BB1D802
:10569000542B7BD0592B98D1072D96D108252CE07F
:1056A000742B73D0792BF6E72168C8051BD521F040
:1056B0008001216009F10109BBF1000F03D0013223
:1056C0000BF1FF3BA260A368013BA3602369013398
:1056D00023617B68013B002B7B6040F387803B6844
:1056E00001333B6064E71AEB05017FF46EAF0D46B2
:1056F0008A46226822F4C072226006F8013BE2E783
:10570000226810067FF561AF22F080022260F4E784
:10571000BAF1000F0ED1B9F1000F0ED1226802F4D8
:10572000E061B1F5E06F08D122F4F0624FF0010AB8
:105730002260E2E7BAF1020F55D0012D02D0042D0C
:105740007FF443AF0135EDB2D7E7BAF1010F7FF433
:105750003CAF4FF0020AD0E77DB9B9F1000F7FF4FA
:1057600037AF226802F4E061B1F5E06F40F00381E9
:1057700022F4F06201252260BFE7032DE2D0052D5F
:10578000DEE7022D7FF421AF0325B6E7062D7FF477
:105790001CAF0725B1E7226891057FF516AF22F40B
:1057A00020722260CDF80890A7E7226802F4A06179
:1057B000B1F5806F06D050057FF507AFB9F1000F46
:1057C00000F0D980910558BF029922F4F06258BFC9
:1057D000A9EB010142F4C0724FF0000958BFCDE9B6
:1057E0000416226089E74FF0030A86E739464046EF
:1057F000D4F88031984700283FF4DAAEE5E6D4F8D3
:105800007C313A46404616F8011D98472369013B12
:105810002361E7E66B1E062B24D8022D36D8019BA8
:105820009E427FF6E3AED4F87C313A46404616F805
:10583000011D98472369013B2361F0E7D4F87C31CF
:105840003A4640461BF8011D98472369013B2361F6
:105850000AF1FF3A5FFA8AFABAF1020FEED1033D7C
:10586000EDB2761B2368DA0530D55B0511D5019BB7
:105870009E427FF6BBAED4F87C313A46404616F8DD
:10588000011D98472369013B2361F0E7AA46B3460F
:10589000DEE716F8011C2369652903F1FF3306F1E1
:1058A000FF3523610CD045290AD0D4F87C313A4623
:1058B00040469847236916F8021C013BB51E236138
:1058C0003A464046D4F87C3198472E46226812F07A
:1058D000100201D000208AE63270236803F4C0630E
:1058E000B3F5806F1CD1029B4B45A3EB090223D17A
:1058F00000224046019902F0EFFB039B25681B68DC
:1059000015F0020F06460F4603F104021FD003995B
:105910000A601B68C3E90067E3680133E360D9E705
:10592000049B002BE4D005990A234046013102F084
:1059300053FC049B059EC21A04F26F139E4228BFBB
:1059400004F5B77630460D4900F0DEF8D0E76D0774
:10595000DDD4039D2A601D6802460B46FBF70AF959
:1059600020B1074800F0C2F92860D5E73046394633
:10597000FBF75EF9F8E74FF000092DE66A9400089E
:1059800005980008002310B50446C0E90033C0E9BB
:105990000433836081814366C28183611946082292
:1059A0005C3000F014F90D4B246263620C4BA3626F
:1059B0000C4BE3620C4B23630C4B9C4206D003F16F
:1059C0006802944202D0D0339C4205D104F15800C1
:1059D000BDE8104000F078B910BD00BF495B000879
:1059E0006B5B0008A35B0008C75B0008C0020020D7
:1059F000024A0349034800F069B800BF14000020C0
:105A00008D8500082400002041680C4B10B5994298
:105A1000044601D002F0BAFDA168094B994202D0B8
:105A2000204602F0B3FDE168064B994204D02046BF
:105A3000BDE8104002F0AABD10BD00BFC0020020AA
:105A4000280300209003002010B50B4B0B4C0C4A90
:105A500020461A6004210022FFF794FF04F1680039
:105A600001220921FFF78EFF04F1D0000222BDE8D8
:105A700010401221FFF786BFF8030020C00200206B
:105A8000F1590008014800F020B900BF01040020CE
:105A9000014800F01BB900BF0104002010B5044606
:105AA000FFF7F0FF236A1BB1BDE81040FFF7F0BF1E
:105AB000044B2362044B1B68002BF5D1FFF7C4FF96
:105AC000F2E700BF095A0008F80300202DE9F84367
:105AD0000746884614460026D4E90195B9F1010924
